:100000000C9476000C9480000C9480000C9480007A
:100010000C9480000C9480000C9480000C94800060
:100020000C9480000C9480000C9480000C94800050
:100030000C9480000C9480000C9480000C94800040
:100040000C9480000C9480000C9480000C94800030
:100050000C9480000C9480000C9480000C94800020
:100060000C9480000C9480000C9480000C94800010
:100070000C9480000C9482000C9480000C948000FE
:100080000C9480000C9480000C9480000C948000F0
:100090000C9480000C9480000C9480000C948000E0
:1000A0000C9480000C9480000C9480000C948000D0
:1000B0000C9480000C9480000C9480000C948000C0
:1000C0000C9480000C9480000C9480000C948000B0
:1000D0000C9480000C9480000C9480000C948000A0
:1000E0000C9480000C9480000C94800011241FBE9E
:1000F000CFEFCDBFDFE7DEBF0E949D000C94CA00AA
:100100000C9400001F920F920FB60F9211240BB6A1
:100110000F928F93EF93FF93E0E4F4E084818F7B61
:10012000848380E88187FF91EF918F910F900BBEC0
:100130000F900FBE0F901F901895E0E4F4E08081BF
:100140008064808384818064848380818F778083CE
:1001500087898B60878B109250007894E0E5F0E0FF
:10016000A0E4B4E0808181608083889580818E7F67
:1001700080832FEF80E792E0215080409040E1F7AC
:1001800000C0000014968C911497806414968C9390
:080190001497E8CFF894FFCFAB
:00000001FF
